:0400000081312C29F5
:100008007E14803120007F08D300911EFF28230032
:1000180019082000D1005108FD0065307D0603193C
:100028003D2861307D0603193D2875307D0603198A
:100038003D286F307D0603193D286E307D06031973
:100048003D2830307D0603193D2836307D060319DA
:100058003D2837307D0603193D2838307D060319C1
:100068003D2839307D0603193D287C307D06031D67
:10007800FF287D08D1004508473E860087015108C2
:1000880081000130C5070030C63D1030F6008230CF
:10009800F700473081313A21803176087704031917
:1000A8005D28013081316D2180312E30F0008230A1
:1000B80098281630F6008230F700473081313A210F
:1000C80080317608770403197128023081316D2157
:1000D80080313430F000823098281C30F6008230AD
:1000E800F700473081313A218031760877040319C7
:1000F8008528033081316D2180313A30F00082301B
:1001080098282230F6008230F700473081313A21B2
:1001180080317608770403199F28043081316D21D6
:1001280080314030F0008230F10081319D218031F2
:100138000A302000C3282830F6008230F700473004
:1001480081313A218031760877040319C628463070
:10015800F0008230F10081319D21803120000C12A5
:1001680005302000D2000F30D100F130890BBA28B9
:10017800D10BBA28D20BBA2820000C160A30C500B9
:100188000030C6007C307D060319D62820004608BA
:10019800803AD10080305102031DD4280A3045022C
:1001A800031CFF282000C501C6014608803AD1007B
:1001B80080305102031DE2280A3045020318FC284A
:1001C80015302000D1004508473E860087015108B8
:1001D80081000130C5070030C63D4608803AD1008D
:1001E80080305102031DFA280A304502031CE42816
:1001F8002000C501C6012000111E27292100111E5B
:1002080027292000C501C6014508343E860087011C
:100218000108D1005108FD007D08031925297D0832
:1002280023009A000B302000D1006230890B1A2974
:10023800D10B1A29000001302000C5070030C63D47
:1002480008292100111220005308FF007E10090020
:1002580081312E29FD0120308400003085003130A5
:1002680082314C227E1020008131CA29FA00FB011C
:10027800FC01FB01FC017708F1007608F0008131F0
:10028800F221813171087C02031D4C2970087B0220
:100298000318682976087B07840077087C3D850069
:1002A8000008F8007B087A07F900790886008701BA
:1002B8000108780603196329F601F70108000130DF
:1002C800FB070030FC3D3F290130F6000030F70005
:1002D8000800F200F301F4017408803AF00080305D
:1002E8007002031D79297208730203180800203070
:1002F80020008C060530F1000F30F000F130890B3A
:100308008329F00B8329F10B8329000020008C1628
:100318001530F1004B30F000BE30890B9129F00BFD
:100328009129F10B912900320130F3070030F43D97
:1003380070292000C501C6017008450784007108AE
:10034800463D85000008F2007208FD007D0803198B
:10035800BA297D08F2004508343E860087017208F4
:1003680081000130C5070030C63DA0290D30F200DC
:100378004508343E86008701720881004508343EEE
:1003880086008701810121001116080070302100C4
:10039800990022009D0121009D0123008C0120006D
:1003A8008C0121000C108C140C158C150C128C125D
:1003B80024000C158C152100951323001E121E1104
:1003C8009F1133309B009D179E161D168B170B1718
:1003D8002100911620000C168C16F1297108F500E1
:1003E8007008F40074088400750885001200031969
:1003F800022A0130F4070030F53DF6297009F200B1
:100408007109F300F20A0319F30A74087207F0007D
:100418007508733DF100080065346134753436346D
:100428003034003465346134753437343034003452
:1004380065346134753438343034003465346134AB
:1004480075343934303400346534613475346F347C
:100458006E3400346F346B34363430347C340034CA
:100468006F346B34373430347C3400346F346B344D
:10047800383430347C3400346F346B3439343034AD
:100488007C3400346F346B346F346E347C34003415
:0C049800640080010131890B4D2A003402
:020000040001F9
:02000E00A4C983
:00000001FF
